{
  "contractName": "VaccineControl",
  "abi": [
    {
      "anonymous": false,
      "inputs": [
        {
          "indexed": true,
          "name": "statusCode",
          "type": "uint256"
        }
      ],
      "name": "statusEvent",
      "type": "event"
    },
    {
      "constant": false,
      "inputs": [
        {
          "name": "_firstName",
          "type": "string"
        },
        {
          "name": "_lastName",
          "type": "string"
        }
      ],
      "name": "addPerson",
      "outputs": [
        {
          "name": "",
          "type": "bool"
        }
      ],
      "payable": false,
      "stateMutability": "nonpayable",
      "type": "function"
    },
    {
      "constant": true,
      "inputs": [],
      "name": "getPerson",
      "outputs": [
        {
          "name": "",
          "type": "string"
        },
        {
          "name": "",
          "type": "string"
        }
      ],
      "payable": false,
      "stateMutability": "view",
      "type": "function"
    },
    {
      "constant": true,
      "inputs": [
        {
          "name": "_vaccineId",
          "type": "uint256"
        }
      ],
      "name": "getVaccine",
      "outputs": [
        {
          "name": "",
          "type": "uint256"
        },
        {
          "name": "",
          "type": "string"
        },
        {
          "name": "",
          "type": "string"
        }
      ],
      "payable": false,
      "stateMutability": "view",
      "type": "function"
    },
    {
      "constant": false,
      "inputs": [
        {
          "name": "_vaccineId",
          "type": "uint256"
        },
        {
          "name": "_dose",
          "type": "uint256"
        },
        {
          "name": "_batch",
          "type": "string"
        },
        {
          "name": "_place",
          "type": "string"
        }
      ],
      "name": "addVaccine",
      "outputs": [
        {
          "name": "",
          "type": "bool"
        }
      ],
      "payable": false,
      "stateMutability": "nonpayable",
      "type": "function"
    }
  ],
  "bytecode": "0x608060405234801561001057600080fd5b50610acf806100206000396000f3006080604052600436106100615763ffffffff7c010000000000000000000000000000000000000000000000000000000060003504166322f5b58d8114610066578063762d9abb146101115780638ec4dc951461020e578063e19728a114610301575b600080fd5b34801561007257600080fd5b506040805160206004803580820135601f81018490048402850184019095528484526100fd94369492936024939284019190819084018382808284375050604080516020601f89358b018035918201839004830284018301909452808352979a99988101979196509182019450925082915084018382808284375094975061039f9650505050505050565b604080519115158252519081900360200190f35b34801561011d57600080fd5b50610129600435610423565b604051808481526020018060200180602001838103835285818151815260200191508051906020019080838360005b83811015610170578181015183820152602001610158565b50505050905090810190601f16801561019d5780820380516001836020036101000a031916815260200191505b50838103825284518152845160209182019186019080838360005b838110156101d05781810151838201526020016101b8565b50505050905090810190601f1680156101fd5780820380516001836020036101000a031916815260200191505b509550505050505060405180910390f35b34801561021a57600080fd5b50610223610578565b604051808060200180602001838103835285818151815260200191508051906020019080838360005b8381101561026457818101518382015260200161024c565b50505050905090810190601f1680156102915780820380516001836020036101000a031916815260200191505b50838103825284518152845160209182019186019080838360005b838110156102c45781810151838201526020016102ac565b50505050905090810190601f1680156102f15780820380516001836020036101000a031916815260200191505b5094505050505060405180910390f35b34801561030d57600080fd5b50604080516020600460443581810135601f81018490048402850184019095528484526100fd94823594602480359536959460649492019190819084018382808284375050604080516020601f89358b018035918201839004830284018301909452808352979a9998810197919650918201945092508291508401838280828437509497506106bb9650505050505050565b336000818152602081815260408220855192939290916103c6916001840191880190610993565b5083516103dc9060028301906020870190610993565b5060038101805460ff191660011790556040516064907fd960689f82d5dec34d3032af354c744f270ee0583106ee3fd8fcfdf09130ba6590600090a2506001949350505050565b33600081815260208181526040808320858452600401825280832080546001808301805485516002938216156101000260001901909116839004601f810188900488028201880190965285815296976060978897919694959294939092019284918301828280156104d55780601f106104aa576101008083540402835291602001916104d5565b820191906000526020600020905b8154815290600101906020018083116104b857829003601f168201915b5050845460408051602060026001851615610100026000190190941693909304601f8101849004840282018401909252818152959750869450925084019050828280156105635780601f1061053857610100808354040283529160200191610563565b820191906000526020600020905b81548152906001019060200180831161054657829003601f168201915b50505050509050935093509350509193909250565b33600081815260208181526040918290206001808201805485516002938216156101000260001901909116839004601f81018690048602820186019096528581526060968796909592949390930192909184919083018282801561061d5780601f106105f25761010080835404028352916020019161061d565b820191906000526020600020905b81548152906001019060200180831161060057829003601f168201915b5050845460408051602060026001851615610100026000190190941693909304601f8101849004840282018401909252818152959750869450925084019050828280156106ab5780601f10610680576101008083540402835291602001916106ab565b820191906000526020600020905b81548152906001019060200180831161068e57829003601f168201915b5050505050905092509250509091565b6000338180861161072d57604080517f08c379a000000000000000000000000000000000000000000000000000000000815260206004820152601060248201527f446f736520697320696e76616c69642e00000000000000000000000000000000604482015290519081900360640190fd5b845160001061079d57604080517f08c379a000000000000000000000000000000000000000000000000000000000815260206004820152601160248201527f426174636820697320696e76616c69642e000000000000000000000000000000604482015290519081900360640190fd5b835160001061080d57604080517f08c379a000000000000000000000000000000000000000000000000000000000815260206004820152601c60248201527f506c616365206f662076616363696e6520697320696e76616c69642e00000000604482015290519081900360640190fd5b73ffffffffffffffffffffffffffffffffffffffff821660009081526020819052604090206003015460ff1615610958575073ffffffffffffffffffffffffffffffffffffffff8116600090815260208181526040808320898452600401825290912086815585519091610888916001840191880190610993565b50835161089e9060028301906020870190610993565b5073ffffffffffffffffffffffffffffffffffffffff82166000908152602081815260408083208a8452600401909152902081548155600180830180548493926108ff92818501929091600290821615610100026000190190911604610a11565b5060028281018054610924928481019291600019610100600183161502011604610a11565b5050604051606591507fd960689f82d5dec34d3032af354c744f270ee0583106ee3fd8fcfdf09130ba6590600090a2610986565b604051610190907fd960689f82d5dec34d3032af354c744f270ee0583106ee3fd8fcfdf09130ba6590600090a25b5060019695505050505050565b828054600181600116156101000203166002900490600052602060002090601f016020900481019282601f106109d457805160ff1916838001178555610a01565b82800160010185558215610a01579182015b82811115610a015782518255916020019190600101906109e6565b50610a0d929150610a86565b5090565b828054600181600116156101000203166002900490600052602060002090601f016020900481019282601f10610a4a5780548555610a01565b82800160010185558215610a0157600052602060002091601f016020900482015b82811115610a01578254825591600101919060010190610a6b565b610aa091905b80821115610a0d5760008155600101610a8c565b905600a165627a7a723058205f8ac9bd75eecd6d471a31eb904c8b0ceea1a87571848f2b00df3bd6d6cddc250029",
  "source": "pragma solidity ^0.4.23;\n\ncontract VaccineControl {\n    \n    event statusEvent(uint indexed statusCode);\n    \n    struct Person {\n        address personAddress;\n        string firstName;\n        string lastName;\n        bool created;\n        mapping(uint => Vaccine) vaccines;\n    }\n\n    struct Vaccine {\n        uint dose;\n        string batch;\n        string place;\n    }\n\n    mapping (address => Person) private persons;\n    \n    function addPerson(string _firstName, string _lastName) public returns (bool) {\n        \n        address _address = msg.sender;\n        \n        Person storage person = persons[_address];\n        person.firstName = _firstName;\n        person.lastName = _lastName;\n        person.created = true;\n\n        emit statusEvent(100);\n        \n        return true;\n    }\n    \n    function getPerson() public view returns (string, string) {\n        address _address = msg.sender;\n        return (persons[_address].firstName, persons[_address].lastName);\n    }\n    \n    function getVaccine(uint _vaccineId) public view returns (uint, string, string) {\n        address _address = msg.sender;\n        return (persons[_address].vaccines[_vaccineId].dose, \n        persons[_address].vaccines[_vaccineId].batch, persons[_address].vaccines[_vaccineId].place);\n    }\n    \n    function addVaccine(uint _vaccineId, uint _dose, string _batch, string _place) public \n            returns(bool) \n    {\n        address _address = msg.sender;\n\n        require(\n            _dose > 0,\n            \"Dose is invalid.\"\n        );\n        \n        require(\n            bytes(_batch).length > 0,\n            \"Batch is invalid.\"\n        );\n        \n        require(\n            bytes(_place).length > 0,\n            \"Place of vaccine is invalid.\"\n        );\n        \n        if (persons[_address].created) {\n            Vaccine storage vaccine = persons[_address].vaccines[_vaccineId];\n            vaccine.dose = _dose;\n            vaccine.batch = _batch;\n            vaccine.place = _place;\n            persons[_address].vaccines[_vaccineId] = vaccine;\n   \n            emit statusEvent(101);\n        } \n        else\n        {\n            emit statusEvent(400);\n        }\n        return true;\n    }\n       \n}",
  "sourcePath": "/Users/michel.fernandes/Dropbox/EY/Projetos/Ethereum/bck-vaccine-control/contracts/VaccineControl.sol",
  "compiler": {
    "name": "solc",
    "version": "0.4.24+commit.e67f0147.Emscripten.clang"
  },
  "schemaVersion": "2.0.1",
  "updatedAt": "2018-10-30T19:04:53.888Z"
}