{
  "contractName": "VaccinePerson",
  "abi": [
    {
      "anonymous": false,
      "inputs": [
        {
          "indexed": true,
          "name": "statusCode",
          "type": "uint256"
        }
      ],
      "name": "statusEvent",
      "type": "event"
    },
    {
      "constant": false,
      "inputs": [
        {
          "name": "_firstName",
          "type": "string"
        },
        {
          "name": "_lastName",
          "type": "string"
        }
      ],
      "name": "addPerson",
      "outputs": [
        {
          "name": "",
          "type": "bool"
        }
      ],
      "payable": false,
      "stateMutability": "nonpayable",
      "type": "function"
    },
    {
      "constant": true,
      "inputs": [],
      "name": "getPerson",
      "outputs": [
        {
          "name": "",
          "type": "string"
        },
        {
          "name": "",
          "type": "string"
        }
      ],
      "payable": false,
      "stateMutability": "view",
      "type": "function"
    },
    {
      "constant": true,
      "inputs": [
        {
          "name": "_vaccineId",
          "type": "uint256"
        }
      ],
      "name": "getVaccine",
      "outputs": [
        {
          "name": "",
          "type": "uint256"
        },
        {
          "name": "",
          "type": "string"
        },
        {
          "name": "",
          "type": "string"
        }
      ],
      "payable": false,
      "stateMutability": "view",
      "type": "function"
    },
    {
      "constant": false,
      "inputs": [
        {
          "name": "_vaccineId",
          "type": "uint256"
        },
        {
          "name": "_dose",
          "type": "uint256"
        },
        {
          "name": "_batch",
          "type": "string"
        },
        {
          "name": "_place",
          "type": "string"
        }
      ],
      "name": "addVaccine",
      "outputs": [
        {
          "name": "",
          "type": "bool"
        }
      ],
      "payable": false,
      "stateMutability": "nonpayable",
      "type": "function"
    }
  ],
  "bytecode": "0x608060405234801561001057600080fd5b50610b94806100206000396000f3006080604052600436106100615763ffffffff7c010000000000000000000000000000000000000000000000000000000060003504166322f5b58d8114610066578063762d9abb146101115780638ec4dc951461020e578063e19728a114610301575b600080fd5b34801561007257600080fd5b506040805160206004803580820135601f81018490048402850184019095528484526100fd94369492936024939284019190819084018382808284375050604080516020601f89358b018035918201839004830284018301909452808352979a99988101979196509182019450925082915084018382808284375094975061039f9650505050505050565b604080519115158252519081900360200190f35b34801561011d57600080fd5b50610129600435610485565b604051808481526020018060200180602001838103835285818151815260200191508051906020019080838360005b83811015610170578181015183820152602001610158565b50505050905090810190601f16801561019d5780820380516001836020036101000a031916815260200191505b50838103825284518152845160209182019186019080838360005b838110156101d05781810151838201526020016101b8565b50505050905090810190601f1680156101fd5780820380516001836020036101000a031916815260200191505b509550505050505060405180910390f35b34801561021a57600080fd5b506102236105da565b604051808060200180602001838103835285818151815260200191508051906020019080838360005b8381101561026457818101518382015260200161024c565b50505050905090810190601f1680156102915780820380516001836020036101000a031916815260200191505b50838103825284518152845160209182019186019080838360005b838110156102c45781810151838201526020016102ac565b50505050905090810190601f1680156102f15780820380516001836020036101000a031916815260200191505b5094505050505060405180910390f35b34801561030d57600080fd5b50604080516020600460443581810135601f81018490048402850184019095528484526100fd94823594602480359536959460649492019190819084018382808284375050604080516020601f89358b018035918201839004830284018301909452808352979a99988101979196509182019450925082915084018382808284375094975061071d9650505050505050565b336000818152602081815260408220855192939290916103c6916001840191880190610a58565b5083516103dc9060028301906020870190610a58565b50600381018054600160ff1990911681179091558054808201825560009182527fb10e2d527612073b26eecdfd717e6a320cf44b4afac2b0732d9fcbe2b7fa0cf601805473ffffffffffffffffffffffffffffffffffffffff191673ffffffffffffffffffffffffffffffffffffffff85161790556040516064917fd960689f82d5dec34d3032af354c744f270ee0583106ee3fd8fcfdf09130ba6591a2506001949350505050565b33600081815260208181526040808320858452600501825280832080546001808301805485516002938216156101000260001901909116839004601f810188900488028201880190965285815296976060978897919694959294939092019284918301828280156105375780601f1061050c57610100808354040283529160200191610537565b820191906000526020600020905b81548152906001019060200180831161051a57829003601f168201915b5050845460408051602060026001851615610100026000190190941693909304601f8101849004840282018401909252818152959750869450925084019050828280156105c55780601f1061059a576101008083540402835291602001916105c5565b820191906000526020600020905b8154815290600101906020018083116105a857829003601f168201915b50505050509050935093509350509193909250565b33600081815260208181526040918290206001808201805485516002938216156101000260001901909116839004601f81018690048602820186019096528581526060968796909592949390930192909184919083018282801561067f5780601f106106545761010080835404028352916020019161067f565b820191906000526020600020905b81548152906001019060200180831161066257829003601f168201915b5050845460408051602060026001851615610100026000190190941693909304601f81018490048402820184019092528181529597508694509250840190508282801561070d5780601f106106e25761010080835404028352916020019161070d565b820191906000526020600020905b8154815290600101906020018083116106f057829003601f168201915b5050505050905092509250509091565b6000338180861161078f57604080517f08c379a000000000000000000000000000000000000000000000000000000000815260206004820152601060248201527f446f736520697320696e76616c69642e00000000000000000000000000000000604482015290519081900360640190fd5b84516000106107ff57604080517f08c379a000000000000000000000000000000000000000000000000000000000815260206004820152601160248201527f426174636820697320696e76616c69642e000000000000000000000000000000604482015290519081900360640190fd5b835160001061086f57604080517f08c379a000000000000000000000000000000000000000000000000000000000815260206004820152601c60248201527f506c616365206f662076616363696e6520697320696e76616c69642e00000000604482015290519081900360640190fd5b73ffffffffffffffffffffffffffffffffffffffff821660009081526020819052604090206003015460ff1615610a1d575073ffffffffffffffffffffffffffffffffffffffff81166000908152602081815260408083208984526005018252909120868155855190916108ea916001840191880190610a58565b5083516109009060028301906020870190610a58565b5060038101805473ffffffffffffffffffffffffffffffffffffffff191673ffffffffffffffffffffffffffffffffffffffff84169081179091556000908152602081815260408083208a84526005019091529020815481556001808301805484939261098792848201929091600261010091831615919091026000190190911604610ad6565b50600282810180546109ac928481019291600019610100600183161502011604610ad6565b506003918201549101805473ffffffffffffffffffffffffffffffffffffffff191673ffffffffffffffffffffffffffffffffffffffff9092169190911790556040516065907fd960689f82d5dec34d3032af354c744f270ee0583106ee3fd8fcfdf09130ba6590600090a2610a4b565b604051610190907fd960689f82d5dec34d3032af354c744f270ee0583106ee3fd8fcfdf09130ba6590600090a25b5060019695505050505050565b828054600181600116156101000203166002900490600052602060002090601f016020900481019282601f10610a9957805160ff1916838001178555610ac6565b82800160010185558215610ac6579182015b82811115610ac6578251825591602001919060010190610aab565b50610ad2929150610b4b565b5090565b828054600181600116156101000203166002900490600052602060002090601f016020900481019282601f10610b0f5780548555610ac6565b82800160010185558215610ac657600052602060002091601f016020900482015b82811115610ac6578254825591600101919060010190610b30565b610b6591905b80821115610ad25760008155600101610b51565b905600a165627a7a7230582016879600f527fed676c33d85b410a24f08828a5f5f1d6cc135b20a8380b7d75b0029",
  "source": "pragma solidity ^0.4.23;\n\ncontract VaccinePerson {\n    \n    event statusEvent(uint indexed statusCode);\n    \n    struct Person {\n        address personAddress;\n        string firstName;\n        string lastName;\n        bool created;\n        uint[] vaccineIds;\n        mapping(uint => Vaccine) vaccines;\n    }\n\n    struct Vaccine {\n        uint dose;\n        string batch;\n        string place;\n        address personAddress;\n    }\n\n    mapping (address => Person) private persons;\n    address[] private personAccounts;\n    \n    \n    function addPerson(string _firstName, string _lastName) public returns (bool) {\n        \n        address _address = msg.sender;\n        \n        Person storage person = persons[_address];\n        person.firstName = _firstName;\n        person.lastName = _lastName;\n        person.created = true;\n        personAccounts.push(_address);\n\n        emit statusEvent(100);\n        \n        return true;\n    }\n    \n    function getPerson() public view returns (string, string) {\n        address _address = msg.sender;\n        return (persons[_address].firstName, persons[_address].lastName);\n    }\n    \n    function getVaccine(uint _vaccineId) public view returns (uint, string, string) {\n        address _address = msg.sender;\n        return (persons[_address].vaccines[_vaccineId].dose, \n        persons[_address].vaccines[_vaccineId].batch, persons[_address].vaccines[_vaccineId].place);\n    }\n    \n    function addVaccine(uint _vaccineId, uint _dose, string _batch, string _place) public \n            returns(bool) \n    {\n        \n        address _address = msg.sender;\n\n        require(\n            _dose > 0,\n            \"Dose is invalid.\"\n        );\n        \n        require(\n            bytes(_batch).length > 0,\n            \"Batch is invalid.\"\n        );\n        \n        require(\n            bytes(_place).length > 0,\n            \"Place of vaccine is invalid.\"\n        );\n        \n        if (persons[_address].created) {\n            \n            Vaccine storage vaccine = persons[_address].vaccines[_vaccineId];\n            vaccine.dose = _dose;\n            vaccine.batch = _batch;\n            vaccine.place = _place;\n            vaccine.personAddress = _address;\n            \n            persons[_address].vaccines[_vaccineId] = vaccine;\n   \n            emit statusEvent(101);\n        } \n        else\n        {\n            emit statusEvent(400);\n        }\n        \n        return true;\n    }\n       \n}",
  "sourcePath": "/Users/michel.fernandes/Dropbox/EY/Projetos/Ethereum/bck-vaccine-control/contracts/Vaccine.sol",
  "compiler": {
    "name": "solc",
    "version": "0.4.24+commit.e67f0147.Emscripten.clang"
  },
  "schemaVersion": "2.0.1",
  "updatedAt": "2018-10-25T02:29:50.096Z"
}